:100000000C942A000C9408010C9412010C944700E3
:100010000C9447000C94B6030C9447000C944700D2
:100020000C9447000C9447000C9447000C94AC02CD
:100030000C9447000C9447000C9447000C94470024
:100040000C9447000C9447000C9447000C94470014
:100050000C94470011241FBECFE5D8E0DEBFCDBF12
:1000600010E0A0E6B0E0EEEDFBE002C005900D92DE
:10007000AA37B107D9F720E0AAE7B0E001C01D9286
:10008000AB38B207E1F70E9470010C94ED050C94B7
:10009000000087B1806487B986B1806886B986B16F
:1000A000816086B9089588309105ACF497B1907E4F
:1000B000892B87B986B1806486B9349BFECF83E0F3
:1000C0008A95F1F7000024B185B190E0982F882738
:1000D000820F911D089580E090E00895CF93DF9303
:1000E000C82FD42F862F90E0880F991F806A0E9416
:1000F000A1008D2F0E94DB008C2F0E94DB000E944C
:10010000F400DF91CF9108951F93CF93DF93162FC3
:10011000C82FD0E0CC0FDD1F8C2F806A0E94A10079
:10012000812F0E94DB008C2F816A0E94BE000E94FA
:10013000ED00C82F0E94F4008C2FDF91CF911F910A
:10014000089594EA96BF06B607FEFDCF91B1987F59
:10015000983071F483B984E886BF06B607FEFDCFF8
:1001600081B1887F883131F0803231F482E00895A6
:1001700080E0089581E0089583E0089594EA96BFB1
:1001800006B607FEFDCF91B1987F903171F483B927
:1001900084E886BF06B607FEFDCF81B1887F803434
:1001A00031F0883431F482E0089580E0089581E0F0
:1001B000089583E0089583B984E886BF06B607FEF4
:1001C000FDCF81B1887F883221F0803321F481E036
:1001D000089580E0089582E0089584EC86BF06B615
:1001E00007FEFDCF83B1089584E986BF06B604FCFF
:1001F000FDCF089585B7886085BF85B7846085BFCA
:1002000078948BB780688BBF81B3877F81BB08955B
:100210001F920F920FB60F9211240F900FBE0F90E6
:100220001F9018951F920F920FB60F9211242F93C3
:100230003F934F935F936F937F938F939F93AF936E
:10024000BF93EF93FF9390917A0081E08927809389
:100250007A0080917A008823C9F084E690E00E94B9
:10026000540261E081E00E94840090E0909361007C
:10027000809360000E942F0285B3806885BB87B39E
:10028000806487BB87B3806887BB19C0809160009A
:100290009091610041E061E00E946E000E94360290
:1002A00083B78D7F83BF83B78E7F83BF85B38F77FF
:1002B00085BB87B38F7B87BB87B38F7787BBFF9166
:1002C000EF91BF91AF919F918F917F916F915F91CE
:1002D0004F913F912F910F900FBE0F901F90189547
:1002E0000E9449000E94FA0081B38E7F81BB81B3D6
:1002F0008D7F81BB84B3806884BB8CE390E0909356
:1003000061008093600082E080938A0010928900EF
:1003100041E061E08CE30E946E0080917A008823C6
:10032000E1F380916200909163000E943D02819B05
:1003300002C0809962C081E080938900819BFECFDA
:10034000809BFCCF109288001092870088E893E190
:100350000E94610341C080991BC0809BFECF8091A9
:100360006000909161000597909361008093600018
:100370008091600090916100839734F483E290E073
:100380009093610080936000109288001092870023
:1003900081991CC0819BFECF80916000909161008B
:1003A0000596909361008093600080916000909129
:1003B00061008C34910534F08BE490E090936100FF
:1003C00080936000109288001092870080916000F6
:1003D000909161000E943D02209187003091880039
:1003E0008091850090918600281739070CF4B3CFCF
:1003F00085B58D7F85BD10928900809160009091B8
:100400006100059720916200309163002817390739
:100410001CF481E080938A008091600090916100DB
:10042000059620916200309163008217930714F4BF
:1004300010928A0080918A00813031F488B38068FC
:1004400088BB88B38F7B88BB80918A00811165CF80
:1004500088B3806488BB88B38F7788BB5ECF8AB34C
:10046000806F8ABB84B38C6384BB08958AB38F701A
:100470008ABB84B3837C84BB08956AE070E00E94E9
:10048000FE0462957295707F7627607F76272BB386
:100490002F70622B6BBB880F991F880F991F95B324
:1004A000937C892B85BB0895AF92BF92CF92DF9248
:1004B000EF92FF920F931F93392F789423B7216007
:1004C00023BF23B7226023BF23B72B7F23BF29B7C6
:1004D000216029BF282F990F990B6894AA24A7F8A7
:1004E0000F2EF6E9BF2EF02D0F2EF8E9CF2EF02DAE
:1004F000D12CE12CF12C00E010E0492F592F692F6D
:10050000792F892F0E941205A12CB12C0F2EFAEF02
:10051000CF2EF02D0E946D05822F932F2AE030E020
:10052000B9010E94FE047093800060937F00A901CE
:10053000481B590B942F80E0B9010E94FE04709370
:100540007E0060937D001F910F91FF90EF90DF90F0
:10055000CF90BF90AF9008951F920F920FB60F9259
:1005600011242F933F934F935F936F937F938F93B8
:100570009F93AF93BF93CF93DF93EF93FF938091BC
:100580008100909182000196909382008093810077
:10059000209181003091820080917F0090918000B5
:1005A000821793070CF07AC010928200109281009B
:1005B000C0917B00D0917C00CC0FDD1FCA59DF4F6A
:1005C000288139818091640090916500821B930B92
:1005D000909365008093640080E090E00E94530057
:1005E000BC01990F880B990B0E94050420E030E0B4
:1005F0004AEF53E40E94690420E030E040E85AE307
:100600000E9469040E94CD037983688320917B0056
:1006100030917C00F901EE0FFF1FEA59FF4F408136
:1006200051818091640090916500840F951F909393
:100630006500809364006AE070E00E94FE0470939D
:100640006300609362002F5F3F4F30937C002093E4
:100650007B002A30310514F110927C0010927B004F
:1006600080918A00813061F485B3805885BB87EA28
:1006700091E60197F1F700C0000085B3805885BB73
:1006800080918900882351F00E94360287EA91E622
:100690000197F1F700C000000E942F02FF91EF9137
:1006A000DF91CF91BF91AF919F918F917F916F918A
:1006B0005F914F913F912F910F900FBE0F901F9020
:1006C0001895AF92BF92CF92DF92EF92FF920F9365
:1006D0001F93392F25B5226025BD29B7206429BF76
:1006E0007894282F990F990B6894AA24A7F80F2EB5
:1006F000F6E9BF2EF02D0F2EF8E9CF2EF02DD12CDC
:10070000E12CF12C00E010E0492F592F692F792FAF
:10071000892F0E941205A12C6894BB24B6F80F2ED5
:10072000FFE1CF2EF02D0E946D05E22FF32F2AE07E
:1007300030E0C9018E1B9F0B982F80E0B9010E9409
:10074000FE047093840060938300CF01B9010E947E
:10075000FE0470938600609385001F910F91FF90B7
:10076000EF90DF90CF90BF90AF9008951F920F92BF
:100770000FB60F9211248F939F93809187009091D1
:100780008800019690938800809387009F918F91B5
:100790000F900FBE0F901F9018950E94D40368947D
:1007A000B1110C94630408950E94480488F09F5787
:1007B00098F0B92F9927B751B0F0E1F0660F771F85
:1007C000881F991F1AF0BA95C9F714C0B13091F07B
:1007D0000E946204B1E008950C946204672F782FA0
:1007E0008827B85F39F0B93FCCF386957795679540
:1007F000B395D9F73EF490958095709561957F4FAC
:100800008F4F9F4F0895E89409C097FB3EF4909551
:100810008095709561957F4F8F4F9F4F9923A9F0D9
:10082000F92F96E9BB279395F69587957795679568
:10083000B795F111F8CFFAF4BB0F11F460FF1BC0AC
:100840006F5F7F4F8F4F9F4F16C0882311F096E93F
:1008500011C0772321F09EE8872F762F05C06623ED
:1008600071F096E8862F70E060E02AF09A95660FA6
:10087000771F881FDAF7880F9695879597F908955F
:1008800057FD9058440F551F59F05F3F71F0479541
:10089000880F97FB991F61F09F3F79F08795089526
:1008A000121613061406551FF2CF4695F1DF08C045
:1008B000161617061806991FF1CF86957105610562
:1008C00008940895E894BB2766277727CB0197F90A
:1008D00008950E947C040C94ED040E94DF0438F01B
:1008E0000E94E60420F0952311F00C94D6040C9499
:1008F000DC0411240C9463040E94400470F3959F5F
:10090000C1F3950F50E0551F629FF001729FBB2706
:10091000F00DB11D639FAA27F00DB11DAA1F649FA2
:100920006627B00DA11D661F829F2227B00DA11D55
:10093000621F739FB00DA11D621F839FA00D611DDB
:10094000221F749F3327A00D611D231F849F600DFC
:10095000211D822F762F6A2F11249F5750409AF025
:10096000F1F088234AF0EE0FFF1FBB1F661F771FB1
:10097000881F91505040A9F79E3F510580F00C947C
:10098000D6040C9463045F3FE4F3983ED4F3869559
:1009900077956795B795F795E7959F5FC1F7FE2B1C
:1009A000880F911D9695879597F9089597F99F67F8
:1009B00080E870E060E008959FEF80EC08950024E7
:1009C0000A941616170618060906089500240A94B4
:1009D00012161306140605060895092E0394000C3A
:1009E00011F4882352F0BB0F40F4BF2B11F460FFC9
:1009F00004C06F5F7F4F8F4F9F4F089597FB072E67
:100A000016F4009407D077FD09D00E94CA0507FCB0
:100A100005D03EF4909581959F4F0895709561950E
:100A20007F4F0895DF93CF931F930F939A9DF02DDF
:100A3000219FF00D8B9DF00D8A9DE02DF10D039F00
:100A4000F00D029FE00DF11D4E9DE00DF11D5E9D2C
:100A5000F00D4F9DF00D7F936F93BF92AF925F9318
:100A60004F93D5010E94DE058B01AC01D7010E9496
:100A7000DE05EB01E80FF91FD6010E9462052F91F8
:100A80003F91D6010E94DE05C60FD71FE81FF91F50
:100A9000AF91BF910E9462052F913F910E94DE05A8
:100AA000C60FD71FE81FF91FD6010E94DE05E60F0B
:100AB000F71F9801BE01CF0111240F911F91CF9113
:100AC000DF9108950E94DE05460F571FC81FD91FEA
:100AD00008F431960895689401C0E8948F929F922B
:100AE000CF93DF930E947905DF91CF919F908F90F4
:100AF000089588249924F401E401B0E49F93AA277F
:100B00009A158B049C04ED05FE05CF05D007A107BF
:100B100098F4AD2FDC2FCF2FFE2FE92D982C892EA6
:100B2000982F872F762F652F542F432F322F222770
:100B3000B85031F7BF9127C01B2EBF91BB27220FA2
:100B4000331F441F551F661F771F881F991F881C5E
:100B5000991CEE1FFF1FCC1FDD1FAA1FBB1F8A148D
:100B60009B04EC05FD05CE05DF05A007B10748F0A5
:100B70008A189B08EC09FD09CE09DF09A00BB10B0F
:100B800021601A94E1F62EF49401AF01BE01CD016B
:100B9000000C0895AA1BBB1B51E107C0AA1FBB1F75
:100BA000A617B70710F0A61BB70B881F991F5A95F9
:100BB000A9F780959095BC01CD010895A29FB00141
:100BC000B39FC001A39F700D811D1124911DB29F81
:0E0BD000700D811D1124911D0895F894FFCF22
:100BDE003C003C0058023C003C003C003C003C0009
:0A0BEE003C003C003C003C003C00D1
:00000001FF
